:100000000C9436010C9453010C9453010C9453013D
:100010000C9453010C9453010C9453010C94530110
:100020000C9453010C9453010C94EF050C940606A8
:100030000C9453010C9453010C9453010C945301F0
:100040000C94E1020C9453010C9469020C94370255
:100050000C9453010C9453010C9453010C945301D0
:100060000C9453010C94530105A84CCDB2D44EB955
:100070003836A9020C50B9918688083CA6AAAA2A4B
:10008000BE000000803F68656C6C6F210A00636FE2
:100090006D6D616E643A2025730A0070726F67722D
:1000A000616D2064656C6179203D2025750A0070C2
:1000B000726F6772616D207267622020203D20257B
:1000C000750925750925750A0070726F6772616D73
:1000D000207374657020203D2025750A00756E61BF
:1000E000626C6520746F2077726974652073746523
:1000F00070733A206E6F7420696E2070726F677231
:10010000616D6D696E67206D6F64650A0070726F56
:100110006772616D207374657073203D2025750AC8
:1001200000646F6E65210A00696E697420656570F0
:10013000726F6D202E2E2E20006F66660A00646995
:100140006D2077686974650A006272696768742057
:1001500077686974650A00626C75650A0067726584
:10016000656E0A007265640A006E616E00696E66F3
:100170000000407A10F35A00A0724E18090010A532
:10018000D4E80000E87648170000E40B54020000B1
:10019000CA9A3B000000E1F5050000809698000037
:1001A0000040420F000000A0860100000010270060
:1001B000000000E803000000006400000000000AE6
:1001C00000000000000100000000002C76D888DC50
:1001D000674F0823DFC1DFAE59E1B1B796E5E3E42D
:1001E00053C63AE651997696E8E6C28426EB898CA6
:1001F0009B62ED407C6FFCEFBC9C9F40F2BAA56F08
:10020000A5F490055A2AF75C936B6CF9676DC11BD6
:10021000FCE0E40D47FEF520E6B500D0ED902E039E
:1002200000943577050080841E080000204E0A00E7
:100230000000C80C333333330F986E12831141EF33
:100240008D2114893BE65516CFFEE6DB18D1844B91
:10025000381BF77C1D901DA4BBE424203284725E01
:10026000228100C9F124ECA1E53D270011241FBE25
:10027000CFEFD8E0DEBFCDBF11E0A0E0B1E0E4ED0C
:10028000FBE102C005900D92AE31B107D9F711E044
:10029000AEE1B1E001C01D92A63FB107E1F70E94B7
:1002A00055010C94E80D0C94000084B7877F84BF3F
:1002B00088E10FB6F89480936000109260000FBE42
:1002C0008CE090E00E94940186E890E09F938F93E9
:1002D0000E94260D0E942A030E94C80340E060E0AD
:1002E00080E00E94E9040E94340678940F900F90F9
:1002F0000E946B04FDCFCF93C82F8A3019F48DE094
:100300000E947B018091C00085FFFCCFC093C60096
:1003100081E090E0CF9108958091C00087FFFCCFED
:100320008091C60090E00895CF93DF93EC0189E8B7
:10033000EEE1F1E0DF011D928A95E9F7CF010E941D
:10034000D30282E691E00E94D3021092C000E1EC59
:10035000F0E01082A2ECB0E01C92D093C500C093F4
:10036000C40088E1808386E08C93808180688083EC
:10037000E0EFF1E08FE091E09383828381E091E010
:1003800091838083DF91CF9108958091C00087FF92
:10039000FCCF8091C60008959091C00095FFFCCFDE
:1003A0008093C60008958823A9F190911F01282FFA
:1003B00030E0290F311D203431051CF54FB7F8947A
:1003C00020911E0130E0562FFB019E2F951B9817A0
:1003D00080F490911F016191D901A90FB11DAF73F4
:1003E000BB27A25EBE4F14966C939F5F90931F0134
:1003F000ECCF4FBF8091C10080628093C10081E04B
:1004000008958091200190912101019690932101FE
:100410008093200180E00895882339F19091630151
:10042000981718F12FB7F894362FDB019A2F931BEA
:100430009817C0F4E091620191E09E0F90936201E1
:10044000F0E0EA59FE4F90819D93909162019034C3
:1004500018F09054909362019091630191509093A1
:100460006301E4CF2FBF81E0089580E008951F92DB
:100470000F920FB60F9211248F93EF93FF938091F9
:100480001F018823C9F0E0911E0181E08E0F809347
:100490001E01F0E0E25EFE4F84818093C6008091F1
:1004A0001E01803418F0805480931E0180911F013A
:1004B000815080931F0105C08091C1008F7D809382
:1004C000C100FF91EF918F910F900FBE0F901F9081
:1004D00018951F920F920FB60F9211242F933F93EE
:1004E0004F935F938F939F93AF93BF93EF93FF933C
:1004F0009091C600809163018034E8F520916201FB
:10050000E82FF0E0E20FF11DEF73FF27EA59FE4FED
:1005100090838F5F809363019A30B1F590910001D1
:10052000992331F08091A6018F5F8093A6012CC0A2
:1005300091E09093000130E090E00197432F50E06C
:10054000DA01A955BE4F481759077CF441E0420F24
:10055000E22FF0E0EA59FE4F50815C93403410F0F6
:1005600041EC420F3F5F242FE9CF1C9210926301B0
:100570001092620109C08091640190916501019619
:100580009093650180936401FF91EF91BF91AF91CA
:100590009F918F915F914F913F912F910F900FBE3F
:1005A0000F901F901895FC01108211821382128205
:1005B000DC011496EC5BFF4F1D92AE17BF07E1F70D
:1005C00008951F920F920FB60F9211248F939F934D
:1005D0009091E7018091E901981301C05D98909195
:1005E000E7018091EA01981301C05F989091E701BB
:1005F0008091EB01981301C05E988091E7018F3FD5
:1006000079F48091E90181115D9A8091EA0181116B
:100610005F9A8091EB0181115E9A1092E70105C00B
:100620008091E7018F5F8093E7019F918F910F90F9
:100630000FBE0F901F9018951092E701EEE6F0E0C4
:1006400080818E7F80830895EEE6F0E08081816076
:10065000808308951092E7010E94E50485B58160CA
:1006600085BD0C9424038F929F92AF92BF92EF921C
:10067000FF921F93CF93DF9300D01F92CDB7DEB7C9
:1006800082E08093E80188E291E09F938F930E943B
:10069000260D6BE270E082E090E00E94E20D0F9088
:1006A0000F9010E084E0E82EF12C612F70E080E0E4
:1006B00090E00E94550A2AE939E949E95EE30E947F
:1006C000E30A4B015C0120E030E0A9010E94C5096A
:1006D0000E94460B20E030E04EEF52E40E94E30A15
:1006E0000E94290A6058698320E030E040E050E42D
:1006F000C501B4010E94C5090E94460B20E030E00C
:100700004EEF52E40E94E30A0E94290A60586A836D
:1007100020E030E040E850E4C501B4010E94C50982
:100720000E94460B20E030E04EEF52E40E94E30AC4
:100730000E94290A60586B8343E050E0B701CE0164
:1007400001960E94C00D64E670E0C70103960E9406
:10075000E20D85E0E80EF11C1F5F1B3209F0A5CF0A
:1007600081E291E09F938F930E94260D81E0809318
:10077000E8010F900F900F900F900F90DF91CF91A5
:100780001F91FF90EF90BF90AF909F908F90089532
:1007900080E090E00E94BA0D8038914241F00E94C2
:1007A000330360E871E280E090E00E94E20D81E0B6
:1007B0008093E8010895CF93DF9300D0CDB7DEB7E3
:1007C000BC018091E8018230C1F47F936F938DE08A
:1007D00091E09F938F9369837A830E94260D6981AC
:1007E0007A8182E090E00F900F900F900F900F9021
:1007F0000F90DF91CF910C94E20D8DED90E09F93DF
:100800008F930E94260D0F900F900F900F90DF9105
:10081000CF910895CF92DF92EF92FF920F931F93A3
:10082000CF93DF938C01EB01F42EE52E85E0809FC2
:100830006001819FD00C1124B6016C5F7F4F43E0B3
:1008400050E0CE010E94C00D6F2D7E2DC60107968F
:100850000E94E20D1F930F9389EC90E09F938F937A
:100860000E94260D8A811F928F9389811F928F93F8
:1008700088811F928F938FEA90E09F938F930E94BD
:10088000260DEF92FF928BE990E09F938F930E9449
:10089000260D8DB79EB740960FB6F8949EBF0FBE3B
:1008A0008DBFDF91CF911F910F91FF90EF90DF905F
:1008B000CF90089587EA91E09F938F938EE890E020
:1008C0009F938F930E94260D109200010F900F901E
:1008D0000F900F900895CF92DF92EF92FF920F93B7
:1008E0001F93CF93DF9300D000D01F92CDB7DEB718
:1008F0008091000181110E945A048091E8018130A9
:1009000009F055C082E090E00E94BA0D6C01809120
:10091000000181110E945A048091E801813009F0A0
:1009200046C0E12CF12C04E010E0EC14FD0409F4C5
:100930003EC043E050E0B801CE0101960E94AA0DEE
:100940008091000181110E945A048091E801813058
:1009500071F54B816A8189810E94E904C80103967F
:100960000E94BA0D20910001222331F08C839D83D7
:100970000E945A049D818C812091E8012130B9F4B4
:100980000B5F1F4F9C012115310549F08FEC97E05B
:100990000197F1F700C0000021503109F4CF809198
:1009A000E801813021F49FEFE91AF90ABECF0F90D8
:1009B0000F900F900F900F90DF91CF911F910F919B
:1009C000FF90EF90DF90CF900895559A579A569ADE
:1009D0000895E9EEF1E080836183428308954F92A8
:1009E0005F926F927F928F929F92AF92BF92CF92BF
:1009F000DF92EF92FF921F93CF93DF93C0E06C2FB3
:100A000070E080E090E00E94550A2AE939E949E95E
:100A10005EE30E94E30A6B017C0120E030E0A90163
:100A20000E94C5090E94460B4B015C0120E030E0AA
:100A300040E050E4C701B6010E94C5090E94460B80
:100A40002B013C0120E030E040E850E4C701B60152
:100A50000E94C5090E94460B20E030E04EEF52E4B0
:100A60000E94E30A0E94290A10E8160F20E030E0F5
:100A70004EEF52E4C301B2010E94E30A0E94290A28
:100A8000D0E8D60F20E030E04EEF52E4C501B401CB
:100A90000E94E30A0E94290A862F412F6D2F805859
:100AA0000E94E9042FE788E391E0215080409040C4
:100AB000E1F700C00000CF5FCB3209F0A0CFDF919B
:100AC000CF911F91FF90EF90DF90CF90BF90AF90AC
:100AD0009F908F907F906F905F904F9008951F939D
:100AE000CF93DF9384E691E09F938F930E94260D2E
:100AF000C9EED1E01FE7188319821A822FEF81E136
:100B00009AE7215080409040E1F700C000008DE559
:100B100091E09F938F930E94260D188219831A8269
:100B20002FEF81E19AE7215080409040E1F700C02B
:100B3000000087E591E09F938F930E94260D188215
:100B400019821A832FEF81E19AE72150804090406B
:100B5000E1F700C0000089E491E09F938F930E9429
:100B6000260D8FEF888389838A832FEF81E19AE7AF
:100B7000215080409040E1F700C000008EE391E0FA
:100B80009F938F930E94260D82E3888389838A83B3
:100B90002FEF81E19AE7215080409040E1F700C0BB
:100BA000000089E391E09F938F930E94260D1882A5
:100BB00019821A822FEF81E19AE7215080409040FC
:100BC000E1F700C000008DB79EB70C960FB6F89401
:100BD0009EBF0FBE8DBFDF91CF911F9108951F92D1
:100BE0000F920FB60F9211248F939F938091EE0175
:100BF0009091EF0101969093EF018093EE019F9108
:100C00008F910F900FBE0F901F9018951F920F920B
:100C10000FB60F9211248F939F938091EE019091C4
:100C2000EF019093ED018093EC011092EF0110928F
:100C3000EE019F918F910F900FBE0F901F9018950E
:100C4000EFE6F0E080818F7D808308951092ED01C2
:100C50001092EC011092EF011092EE01EFE6F0E03D
:100C6000808182628083089510928000E1E8F0E044
:100C700080E4808380818460808382E19AE790931E
:100C80008900809388008081886080830C94260688
:100C9000A3E1B0E0EEE4F6E00C94C90B6C014B016B
:100CA0002A01FC0117821682838181FF43C3AE01B2
:100CB0004F5F5F4F3A01F6019381F40193FD8591F7
:100CC00093FF81914F01882309F430C3853239F4B1
:100CD00093FD859193FF81914F01853239F4B601DF
:100CE00090E00E94EE0C52012501E5CF10E0F12CBE
:100CF00020E02032A0F48B3269F030F4803259F0D9
:100D0000833269F420612CC08D3239F0803339F49C
:100D1000216026C02260246023C0286021C027FDF6
:100D200027C030ED380F3A3078F426FF06C0FAE0DD
:100D30001F9F300D1124132F13C04AE0F49E300D75
:100D40001124F32E20620CC08E3221F426FDEEC257
:100D5000206406C08C3611F4206802C0883641F445
:100D6000F40193FD859193FF81914F018111C1CFD2
:100D70009BEB980F933018F42061805E06C09BE9CE
:100D8000980F933008F071C12F7E26FF16E02F7365
:100D9000322E853619F42064322E08C0863621F4AE
:100DA000F22FF0683F2E02C01111115037FE07C01C
:100DB0001C3350F4EE24E394E10E27E00BC018300E
:100DC00038F027E017E005C027E04CE3E42E02C02E
:100DD000212FE12C520144E0A40EB11CF2016081EC
:100DE0007181828193810E2DA3010E94000C2C0140
:100DF000098100FF02C003FF07C031FC08C032FEBA
:100E000009C030E2232E07C02DE2222E04C09BE24F
:100E1000292E01C0212C802F8C7019F0211068C25E
:100E2000A8C237FE0FC0E40C04FF04C08A818133DE
:100E300009F4EA941E1474F5F8E0FE1578F588E0DC
:100E4000E82E2CC036FC2AC0812F90E08415950531
:100E50009CF02CEF42162FEF520674F0432D4068A1
:100E6000342E0AC0E2E0F0E0EC0FFD1FE10FF11DAF
:100E70008081803319F411501111F4CF37FE0EC068
:100E8000EE24E394E10E812F90E0481659062CF4ED
:100E9000141904C0EE24E39401C010E037FE06C02C
:100EA0001414150434F4C201019605C085E090E0E5
:100EB00002C081E090E021100196112331F0212F32
:100EC00030E02F5F3F4F820F931F2F2D30E08217AE
:100ED000930714F4F81A01C0F12C832D897049F49A
:100EE000FF2039F0B60180E290E00E94EE0CFA9407
:100EF000F7CF222029F0B601822D90E00E94EE0C5F
:100F000033FC09C0FF2039F0B60180E390E00E9475
:100F1000EE0CFA94F7CF37FE5AC0942D852D57FE6C
:100F200002C090E080E0292E382E20E030E0A201BF
:100F30004E1951095D874C87A201421953095F87F9
:100F40004E87612F70E044275527461B570B598B5E
:100F5000488B5FEF2516350649F4B6018EE290E026
:100F60002A8B3B8B0E94EE0C3B892A894214530446
:100F70006CF04C855D854215530544F4EE85FF8584
:100F8000E20FF31FE60DF71D818101C080E351E000
:100F9000251A31082F5F3F4F488959892416350695
:100FA0004CF0B60190E02A8B3B8B0E94EE0C2A8914
:100FB0003B89CFCF2414350439F49A81963318F441
:100FC000953311F404FF81E3B60190E04BC08A81B0
:100FD000813309F00F7EB60190E00E94EE0C1111F2
:100FE00005C034FC18C085E690E017C0B6018EE25B
:100FF00090E00E94EE0C82E0EE24E394E80EF30110
:10100000E80FF11D8081B60190E00E94EE0C1150B6
:101010008E2D91F7E6CF85E490E0B6010E94EE0CAC
:1010200057FC05C04114510439F404FF05C0519424
:10103000419451088DE201C08BE2B60190E00E941C
:10104000EE0C80E39AE0491651042CF08F5F5AE0D1
:10105000451A5108F7CFB60190E00E94EE0CB60198
:10106000C201C0960E94EE0C57C1833631F083371F
:1010700079F0833509F058C021C05201E2E0AE0E8C
:10108000B11CF2018081898301E010E0230114C0CA
:101090005201F2E0AF0EB11CF2014080518026FFF8
:1010A00003C0612F70E002C06FEF7FEFC2012A8B97
:1010B0000E94E30C8C012A892F7715C05201F2E0BF
:1010C000AF0EB11CF2014080518026FF03C0612F9A
:1010D00070E002C06FEF7FEFC2012A8B0E94D80C34
:1010E0008C012A892068322E23FD1AC08F2D90E0B2
:1010F00008171907A8F4B60180E290E00E94EE0CF0
:10110000FA94F4CFF20137FC859137FE81912F01DB
:10111000B60190E00E94EE0CF110FA940150110912
:101120000115110579F7F8C0843611F0893659F5A3
:10113000520127FF09C0F4E0AF0EB11CF20160813B
:101140007181828193810AC0F2E0AF0EB11CF2017D
:1011500060817181882777FD8095982F2F76322EB8
:1011600097FF09C090958095709561957F4F8F4F3F
:101170009F4F2068322E2AE030E0A3010E944C0DE0
:10118000E82EE6183FC0022F853721F40F7E2AE0B3
:1011900030E01DC0097F8F3691F018F4883559F082
:1011A000C5C0803719F0883711F0C0C0006104FF56
:1011B00009C0046007C024FF08C0066006C028E01C
:1011C00030E005C020E130E002C020E132E0520111
:1011D00007FF09C0F4E0AF0EB11CF201608171811C
:1011E0008281938108C0F2E0AF0EB11CF2016081F0
:1011F000718180E090E0A3010E944C0DE82EE6187A
:101200000F77302E36FE0BC0332D3E7FE11650F4A3
:1012100034FE0AC032FC08C0332D3E7E05C00E2DC0
:10122000332D03C00E2D01C0012F34FF0CC0FE0171
:10123000EE0DF11D8081803311F4397E08C032FF3C
:1012400005C00E5F04C0832F867809F00F5F33FD61
:1012500013C030FF06C01E2D0F1518F41F0D101BF4
:101260000F2D0F1568F4B60180E290E03B8B0E94D1
:10127000EE0C0F5F3B89F5CF0F1510F4F01A01C08B
:10128000F12C34FF12C0B60180E390E03B8B0E944A
:10129000EE0C3B8932FF17C031FD03C088E790E0B8
:1012A00002C088E590E0B6010CC0832F867859F023
:1012B00031FF02C08BE201C080E237FD8DE2B60152
:1012C00090E00E94EE0CE11638F4B60180E390E065
:1012D0000E94EE0C1150F7CFEA94F301EE0DF11DD0
:1012E0008081B60190E00E94EE0CE110F5CF14C0B1
:1012F000F4E0FF1558F584E0F81A33FE1EC0211003
:1013000026C003FF2AC009E611E0F32DF0713F2E3D
:10131000F8018491811124C0FF2009F4E5CCB601C5
:1013200080E290E00E94EE0CFA94F6CFF6018681FE
:10133000978126C08FEF9FEF23C0B60180E290E037
:101340000E94EE0CFA94F110F8CFD9CFF12CB6012F
:10135000822D90E00E94EE0CD4CF0DE611E0D5CFA7
:1013600031108052B60190E00E94EE0C0F5F1F4FCB
:10137000CFCF23E02F1510F483E0BECFF12CC1CFE7
:101380006396E2E10C94E50B5058BB27AA270ED0D8
:10139000E0C0D1D030F0D6D020F031F49F3F11F42E
:1013A0001EF4C6C00EF4E095E7FBBCC0E92FE2D006
:1013B00080F3BA17620773078407950718F071F472
:1013C0009EF5FAC00EF4E0950B2EBA2FA02D0B015E
:1013D000B90190010C01CA01A0011124FF27591B7A
:1013E00099F0593F50F4503E68F11A16F040A22F80
:1013F000232F342F4427585FF3CF469537952795F1
:10140000A795F0405395C9F77EF41F16BA0B620BEF
:10141000730B840BBAF09150A1F0FF0FBB1F661F36
:10142000771F881FC2F70EC0BA0F621F731F841F79
:1014300048F4879577956795B795F7959E3F08F09F
:10144000B3CF9395880F08F09927EE0F979587955E
:10145000089598D088F09F5790F0B92F9927B751E9
:10146000A0F0D1F0660F771F881F991F1AF0BA9568
:10147000C9F712C0B13081F09FD0B1E008959CC08F
:10148000672F782F8827B85F39F0B93FCCF386955E
:1014900077956795B395D9F73EF4909580957095BB
:1014A00061957F4F8F4F9F4F0895E89409C097FB38
:1014B0003EF490958095709561957F4F8F4F9F4F2B
:1014C0009923A9F0F92F96E9BB279395F69587956F
:1014D00077956795B795F111F8CFFAF4BB0F11F432
:1014E00060FF1BC06F5F7F4F8F4F9F4F16C08823D9
:1014F00011F096E911C0772321F09EE8872F762F0F
:1015000005C0662371F096E8862F70E060E02AF04F
:101510009A95660F771F881FDAF7880F969587953B
:1015200097F9089597F99F6780E870E060E0089563
:101530009FEF80EC089500240A94161617061806EB
:101540000906089500240A941216130614060506C7
:101550000895092E0394000C11F4882352F0BB0F58
:1015600040F4BF2B11F460FF04C06F5F7F4F8F4FBB
:101570009F4F089557FD9058440F551F59F05F3FF6
:1015800071F04795880F97FB991F61F09F3F79F0A5
:1015900087950895121613061406551FF2CF469527
:1015A000F1DF08C0161617061806991FF1CF8695A9
:1015B0007105610508940895E894BB27662777278D
:1015C000CB0197F908950BD0C4CFB5DF28F0BADF6F
:1015D00018F0952309F0A6CFABCF1124EECFCADFC8
:1015E000A0F3959FD1F3950F50E0551F629FF00136
:1015F000729FBB27F00DB11D639FAA27F00DB11D8F
:10160000AA1F649F6627B00DA11D661F829F222717
:10161000B00DA11D621F739FB00DA11D621F839F9E
:10162000A00D611D221F749F3327A00D611D231F74
:10163000849F600D211D822F762F6A2F11249F57C2
:1016400050408AF0E1F088234AF0EE0FFF1FBB1FE5
:10165000661F771F881F91505040A9F79E3F510584
:1016600070F060CFAACF5F3FECF3983EDCF3869535
:1016700077956795B795F795E7959F5FC1F7FE2B2F
:10168000880F911D9695879597F908959F9305D09A
:101690000F9007FCEE5F28C04BCF74DFE8F3E894AF
:1016A000E0E0BB279F57F0F02AED3FE049EC06C091
:1016B000EE0FBB0F661F771F881F28F0B23A620734
:1016C0007307840728F0B25A620B730B840BE395FF
:1016D0009A9572F7803830F49A95BB0F661F771F82
:1016E000881FD2F7904813C0EF93E0FF06C0A2EA2C
:1016F0002AED3FE049EC5FEB59DE2BDF0F900394BE
:1017000001FC9058E8E6F0E00EC09F3F31F09150A8
:1017100020F4879577956795B795880F911D9695D5
:10172000879597F908959F938F937F936F93FF9376
:10173000EF939B01AC0147DFEF91FF9105D02F9113
:101740003F914F915F913FCFDF93CF931F930F93C3
:10175000FF92EF92DF927B018C01689405C0DA2E34
:10176000EF013DDFFE01E894A5912591359145916A
:101770005591AEF3EF011ADEFE019701A801DA944C
:1017800079F7DF90EF90FF900F911F91CF91DF914C
:1017900008952F923F924F925F926F927F928F9215
:1017A0009F92AF92BF92CF92DF92EF92FF920F93F0
:1017B0001F93CF93DF93CDB7DEB7CA1BDB0B0FB6FA
:1017C000F894DEBF0FBECDBF09942A8839884888B7
:1017D0005F846E847D848C849B84AA84B984C8844D
:1017E000DF80EE80FD800C811B81AA81B981CE0F44
:1017F000D11D0FB6F894DEBF0FBECDBFED01089529
:10180000283008F027E03327DA01990F311D87FDD2
:10181000916000966105710539F432602E5F3D9349
:1018200030E32A95E1F708959F3F30F08038710545
:10183000610509F03C5F3C5F3D93913008F08068A2
:10184000911DDF93CF931F930F93FF92EF92192F68
:10185000987F9695E92F96959695E90FFF27E55382
:10186000FE4F99273327EE24FF24A701E7010590B7
:101870000894079428F4360FE71EF81E491F511DDF
:10188000660F771F881F991F0694A1F7059007948C
:1018900028F4E70EF81E491F561FC11D770F881F39
:1018A000991F661F0694A1F70590079428F4F80E77
:1018B000491F561FC71FD11D880F991F661F771F0D
:1018C0000694A1F70590079420F4490F561FC71FEF
:1018D000D81F990F661F771F881F0694A9F7849158
:1018E0001095177041F0D695C79557954795F79481
:1018F000E7941A95C1F7E1E7F1E068941590159126
:1019000035916591959105907FE27395E118F10A03
:10191000430B560BC90BD009C0F7E10CF11E431F56
:10192000561FC91FD01D7EF4703311F48A95E6CF7F
:10193000E894015030F0080F0AF40027021708F469
:10194000202F2395022F7A3328F079E37D932A956F
:10195000E9F710C07D932A9589F6069497956795C7
:10196000379517951794E118F10A430B560BC90BDD
:10197000D00998F023957E9173957A3308F070E33F
:101980007C932013B8F77E9170617D9330F083953E
:1019900071E37D9370E32A95E1F71124EF90FF90B6
:1019A0000F911F91CF91DF91992787FD9095089511
:1019B000FC010590615070400110D8F7809590951A
:1019C0008E0F9F1F0895FC0161507040019001101F
:1019D000D8F7809590958E0F9F1F08950F931F93B2
:1019E000CF93DF93FB01238121FD03C08FEF9FEF96
:1019F00028C022FF16C046815781248135814217B5
:101A0000530744F4A081B1819D012F5F3F4F318383
:101A100020838C93268137812F5F3F4F3783268326
:101A200010C0EB01092F182F0084F185E02D0995D6
:101A3000892BE1F68E819F8101969F838E83812F72
:101A4000902FDF91CF911F910F910895A0E0B0E00A
:101A5000ECE2FDE00C94D70BAE01495F5F4FDA0179
:101A60006D917D91AD0100EF11E0F80182819381CC
:101A7000DC0113962C911397286013962C930E94E7
:101A80004806D8011296ED91FC9113972381277F88
:101A90002383E4E00C94F30BFA01AA27283051F1D8
:101AA000203181F1E8946F936E7F6E5F7F4F8F4F8F
:101AB0009F4FAF4FB1E03ED0B4E03CD0670F781FEE
:101AC000891F9A1FA11D680F791F8A1F911DA11DD3
:101AD0006A0F711D811D911DA11D20D009F468940C
:101AE0003F912AE0269F11243019305D3193DEF6B4
:101AF000CF010895462F4770405D4193B3E00FD06A
:101B0000C9F7F6CF462F4F70405D4A3318F0495D54
:101B100031FD4052419302D0A9F7EACFB4E0A69537
:101B20009795879577956795BA95C9F70097610559
:101B3000710508959B01AC010A2E069457954795AF
:101B400037952795BA95C9F7620F731F841F951FA4
:101B5000A01D0895DC01CB01FC01F999FECF06C060
:101B6000F2BDE1BDF89A319600B40D92415050405B
:101B7000B8F70895A8E1B0E042E050E00C94AC0D55
:101B8000DC01A40FB51F4150504048F0CB01840F39
:101B9000951F2E910E94D10D41505040D0F70895CD
:101BA000262FF999FECF92BD81BDF89A019700B416
:101BB000021639F01FBA20BD0FB6F894FA9AF99AB6
:101BC0000FBE08950196272F0E94D10D0C94D00DC1
:041BD000F894FFCFB7
:101BD40001000000010000000000008C0100000072
:0E1BE400000002000000007B01000000000075
:00000001FF
