:100000000C949C010C94B9010C94B9010C94B901A5
:100010000C94B9010C94B9010C94B9010C94B90178
:100020000C94B9010C94B9010C94FE060C941507BC
:100030000C94B9010C94B9010C94B9010C94B90158
:100040000C9447030C94B9010C94CF020C949D02BC
:100050000C94B9010C94B9010C94B9010C94B90138
:100060000C94B9010C94B90105A84CCDB2D44EB989
:100070003836A9020C50B9918688083CA6AAAA2A4B
:10008000BE000000803F68656C6C6F210A00756ED1
:100090007265636F676E697A656420636F6D6D6109
:1000A0006E640A4552524F520A004F4B0A006C6967
:1000B000676874206672657175656E63793A0925A3
:1000C000640A0063757272656E746C7920696E20C3
:1000D00070726F6772616D6D696E67206D6F6465B8
:1000E000210A4552524F520A004F4B0A0063757263
:1000F00072656E746C792072756E6E696E672070B1
:10010000726F6772616D210A4552524F520A004F59
:100110004B0A006E6F7420696E2070726F67726197
:100120006D6D696E67206D6F6465210A4552524F8F
:10013000520A004F4B0A006E6F7420696E20707275
:100140006F6772616D6D696E67206D6F6465210AFE
:100150004552524F520A004F4B0A004F4B0A004F74
:100160004B0A004F4B0A0070726F6772616D20641A
:10017000656C6179203D2025750A0070726F677289
:10018000616D207267622020203D2025750925754C
:100190000925750A0070726F6772616D207374654E
:1001A0007020203D2025750A00756E61626C652007
:1001B000746F2077726974652073746570733A2068
:1001C0006E6F7420696E2070726F6772616D6D69F9
:1001D0006E67206D6F64650A0070726F6772616D83
:1001E000207374657073203D2025750A00646F6E5E
:1001F00065210A00696E697420656570726F6D20F3
:100200002E2E2E20006F66660A0064696D207768C6
:100210006974650A00627269676874207768697436
:10022000650A00626C75650A00677265656E0A0092
:100230007265640A006E616E00696E660000407A45
:1002400010F35A00A0724E18090010A5D4E800005F
:10025000E87648170000E40B54020000CA9A3B00FD
:100260000000E1F505000080969800000040420F74
:10027000000000A08601000000102700000000E838
:1002800003000000006400000000000A00000000FD
:10029000000100000000002C76D888DC674F08239E
:1002A000DFC1DFAE59E1B1B796E5E3E453C63AE604
:1002B00051997696E8E6C28426EB898C9B62ED40E4
:1002C0007C6FFCEFBC9C9F40F2BAA56FA5F4900533
:1002D0005A2AF75C936B6CF9676DC11BFCE0E40D67
:1002E00047FEF520E6B500D0ED902E03009435775B
:1002F000050080841E080000204E0A000000C80C83
:10030000333333330F986E12831141EF8D211489EB
:100310003BE65516CFFEE6DB18D1844B381BF77C45
:100320001D901DA4BBE424203284725E228100C98A
:10033000F124ECA1E53D270011241FBECFEFD8E04A
:10034000DEBFCDBF11E0A0E0B1E0E4E2FEE102C01B
:1003500005900D92A634B107D9F712E0A6E4B1E0FA
:1003600001C01D92AE31B107E1F70E94BB010C94B0
:10037000100F0C94000084B7877F84BF88E10FB60C
:10038000F89480936000109260000FBE8CE090E0C3
:100390000E94FA0186E890E09F938F930E944B0E93
:1003A0000E9490030E942E0440E060E080E00E94E2
:1003B000F8050E94430778940F900F900E947A05E9
:1003C000FDCFCF93C82F8A3019F48DE00E94E10150
:1003D0008091C00085FFFCCFC093C60081E090E013
:1003E000CF9108958091C00087FFFCCF8091C60017
:1003F00090E00895CF93DF93EC0189E8E6E4F1E023
:10040000DF011D928A95E9F7CF010E9439038AE83E
:1004100091E00E9439031092C000E1ECF0E01082FC
:10042000A2ECB0E01C92D093C500C093C40088E158
:10043000808386E08C93808180688083E8E1F2E0AD
:100440008FE091E09383828381E091E091838083C8
:10045000DF91CF9108958091C00087FFFCCF8091FC
:10046000C60008959091C00095FFFCCF8093C60010
:1004700008958823A9F190914701282F30E0290F92
:10048000311D203431051CF54FB7F89420914601F9
:1004900030E0562FFB019E2F951B981780F490910A
:1004A00047016191D901A90FB11DAF73BB27AA5BA9
:1004B000BE4F14966C939F5F90934701ECCF4FBF54
:1004C0008091C10080628093C10081E00895809195
:1004D0004801909149010196909349018093480108
:1004E00080E00895882339F190918B01981718F1D5
:1004F0002FB7F894362FDB019A2F931B9817C0F46F
:10050000E0918A0191E09E0F90938A01F0E0E2571A
:10051000FE4F90819D9390918A01903418F09054F1
:1005200090938A0190918B01915090938B01E4CF2D
:100530002FBF81E0089580E008951F920F920FB6BB
:100540000F9211248F93EF93FF938091470188239B
:10055000C9F0E091460181E08E0F80934601F0E002
:10056000EA5BFE4F84818093C6008091460180340F
:1005700018F0805480934601809147018150809308
:10058000470105C08091C1008F7D8093C100FF911C
:10059000EF918F910F900FBE0F901F9018951F92A3
:1005A0000F920FB60F9211242F933F934F935F93A7
:1005B0008F939F93AF93BF93EF93FF939091C60058
:1005C00080918B018034E8F520918A01E82FF0E0DA
:1005D000E20FF11DEF73FF27E257FE4F90838F5F0D
:1005E00080938B019A30B1F590910001992331F0FD
:1005F0008091CE018F5F8093CE012CC091E09093CB
:10060000000130E090E00197432F50E0DA01A15360
:10061000BE4F481759077CF441E0420FE22FF0E04B
:10062000E257FE4F50815C93403410F041EC420F92
:100630003F5F242FE9CF1C9210928B0110928A0108
:1006400009C080918C0190918D01019690938D014C
:1006500080938C01FF91EF91BF91AF919F918F910A
:100660005F914F913F912F910F900FBE0F901F9070
:100670001895FC011082118213821282DC011496FB
:10068000EC5BFF4F1D92AE17BF07E1F708951F9275
:100690000F920FB60F9211248F939F9390910F0298
:1006A00080911102981301C05D9890910F02809182
:1006B0001202981301C05F9890910F02809113026B
:1006C000981301C05E9880910F028F3F79F480915A
:1006D000110281115D9A8091120281115F9A8091BD
:1006E000130281115E9A10920F0205C080910F02D1
:1006F0008F5F80930F029F918F910F900FBE0F908D
:100700001F90189510920F02EEE6F0E080818E7F28
:1007100080830895EEE6F0E0808181608083089513
:1007200010920F020E94F40585B5816085BD0C947E
:100730008A038F929F92AF92BF92EF92FF921F9384
:10074000CF93DF9300D01F92CDB7DEB782E08093C6
:10075000100284EF91E09F938F930E944B0E6BE207
:1007600070E082E090E00E94070F0F900F9010E081
:1007700084E0E82EF12C612F70E080E090E00E9490
:10078000640B2AE939E949E95EE30E94F20B4B0167
:100790005C0120E030E0A9010E94D40A0E94550CBF
:1007A00020E030E04EEF52E40E94F20B0E94380B42
:1007B0006058698320E030E040E050E4C501B401B6
:1007C0000E94D40A0E94550C20E030E04EEF52E423
:1007D0000E94F20B0E94380B60586A8320E030E0E0
:1007E00040E850E4C501B4010E94D40A0E94550CAF
:1007F00020E030E04EEF52E40E94F20B0E94380BF2
:1008000060586B8343E050E0B701CE0101960E942F
:10081000E50E64E670E0C70103960E94070F85E0CD
:10082000E80EF11C1F5F1B3209F0A5CF8DEE91E0A1
:100830009F938F930E944B0E81E0809310020F9044
:100840000F900F900F900F90DF91CF911F91FF901D
:10085000EF90BF90AF909F908F90089580E090E0D0
:100860000E94DF0E8038914241F00E94990360E8B7
:1008700071E280E090E00E94070F81E08093100217
:100880000895CF93DF9300D0CDB7DEB7BC01809140
:1008900010028230C1F47F936F9389ED91E09F93B2
:1008A0008F9369837A830E944B0E69817A8182E0FB
:1008B00090E00F900F900F900F900F900F90DF919E
:1008C000CF910C94070F89EA91E09F938F930E9438
:1008D0004B0E0F900F900F900F90DF91CF910895D6
:1008E000CF92DF92EF92FF920F931F93CF93DF93FC
:1008F0008C01EB01F42EE52E85E0809F6001819F45
:10090000D00C1124B6016C5F7F4F43E050E0CE0164
:100910000E94E50E6F2D7E2DC60107960E94070FDF
:100920001F930F9385E991E09F938F930E944B0E45
:100930008A811F928F9389811F928F9388811F9242
:100940008F938BE791E09F938F930E944B0EEF92D2
:10095000FF9287E691E09F938F930E944B0E8DB795
:100960009EB740960FB6F8949EBF0FBE8DBFDF9125
:10097000CF911F910F91FF90EF90DF90CF9008954E
:1009800044E050E06DE171E08FEC91E00E94FA0DDF
:10099000892B29F41092100283E691E0A2C047E06F
:1009A00050E062E271E08FEC91E00E94FA0D892B39
:1009B00031F482E0809310028FE591E092C043E031
:1009C00050E06AE271E08FEC91E00E94FA0D892B11
:1009D00031F481E0809310028BE591E082C046E023
:1009E00050E06EE271E08FEC91E00E94FA0D892BED
:1009F00051F480911002823019F487E591E071C0C2
:100A000087E391E06EC044E050E065E371E08FEC75
:100A100091E00E94FA0D892B51F4809110028230EE
:100A200019F483E391E05DC083E191E05AC043E0B3
:100A300050E06AE371E08FEC91E00E94FA0D892B9F
:100A400051F480911002811103C08FE091E049C000
:100A50008DEE90E046C043E050E06EE371E08FEC35
:100A600091E00E94FA0D892B89F480911002823066
:100A700051F01092100240E060E080E00E94F80522
:100A800089EE90E02EC083EC90E02BC043E050E074
:100A900062E471E08FEC91E00E94FA0D892BC9F4B9
:100AA00080911402909115029F938F938EEA90E0AB
:100AB0009F938F930E944B0E8AEA90E09F938F93AF
:100AC0000E944B0E0F900F900F900F900F900F9071
:100AD0000EC08FEC91E00E94E70D892B41F48EE867
:100AE00090E09F938F930E944B0E0F900F90109267
:100AF00000010895CF92DF92EF92FF920F931F9320
:100B0000CF93DF9300D000D01F92CDB7DEB7809196
:100B1000000181110E94C00480911002813009F00F
:100B200055C082E090E00E94DF0E6C0180910001D0
:100B300081110E94C00480911002813009F046C0EA
:100B4000E12CF12C04E010E0EC14FD0409F43EC0AB
:100B500043E050E0B801CE0101960E94CF0E809193
:100B6000000181110E94C00480911002813071F552
:100B70004B816A8189810E94F805C80103960E9411
:100B8000DF0E20910001222331F08C839D830E948F
:100B9000C0049D818C81209110022130B9F40B5F3B
:100BA0001F4F9C012115310549F08FEC97E001970B
:100BB000F1F700C0000021503109F4CF80911002FC
:100BC000813021F49FEFE91AF90ABECF0F900F9000
:100BD0000F900F900F90DF91CF911F910F91FF9089
:100BE000EF90DF90CF900895559A579A569A0895AE
:100BF000E1E1F2E080836183428308954F925F9246
:100C00006F927F928F929F92AF92BF92CF92DF921C
:100C1000EF92FF921F93CF93DF93C0E06C2F70E0B1
:100C200080E090E00E94640B2AE939E949E95EE33B
:100C30000E94F20B6B017C0120E030E0A9010E94D0
:100C4000D40A0E94550C4B015C0120E030E040E0EA
:100C500050E4C701B6010E94D40A0E94550C2B0132
:100C60003C0120E030E040E850E4C701B6010E94BA
:100C7000D40A0E94550C20E030E04EEF52E40E946E
:100C8000F20B0E94380B10E8160F20E030E04EEF18
:100C900052E4C301B2010E94F20B0E94380BD0E86B
:100CA000D60F20E030E04EEF52E4C501B4010E94BF
:100CB000F20B0E94380B862F412F6D2F80580E9417
:100CC000F8052FE788E391E0215080409040E1F75C
:100CD00000C00000CF5FCB3209F0A0CFDF91CF91F1
:100CE0001F91FF90EF90DF90CF90BF90AF909F90BB
:100CF0008F907F906F905F904F9008951F93CF9348
:100D0000DF9380E392E09F938F930E944B0EC1E1AB
:100D1000D2E01FE7188319821A822FEF81E19AE748
:100D2000215080409040E1F700C0000089E292E04D
:100D30009F938F930E944B0E188219831A822FEF74
:100D400081E19AE7215080409040E1F700C0000027
:100D500083E292E09F938F930E944B0E1882198238
:100D60001A832FEF81E19AE7215080409040E1F70C
:100D700000C0000085E192E09F938F930E944B0E8C
:100D80008FEF888389838A832FEF81E19AE721504F
:100D900080409040E1F700C000008AE092E09F931D
:100DA0008F930E944B0E82E3888389838A832FEF7F
:100DB00081E19AE7215080409040E1F700C00000B7
:100DC00085E092E09F938F930E944B0E18821982C8
:100DD0001A822FEF81E19AE7215080409040E1F79D
:100DE00000C000008DB79EB70C960FB6F8949EBF5A
:100DF0000FBE8DBFDF91CF911F9108951F920F926B
:100E00000FB60F9211248F939F93809116029091A9
:100E10001702019690931702809316029F918F916B
:100E20000F900FBE0F901F9018951F920F920FB644
:100E30000F9211248F939F93809116029091170225
:100E400090931502809314021092170210921602CA
:100E50009F918F910F900FBE0F901F901895EFE606
:100E6000F0E080818F7D80830895109215021092AA
:100E700014021092170210921602EFE6F0E0808141
:100E800082628083089510928000E1E8F0E080E4BF
:100E9000808380818460808382E19AE790938900D7
:100EA000809388008081886080830C943507A3E15B
:100EB000B0E0EDE5F7E00C94D80C6C014B012A0191
:100EC000FC0117821682838181FF43C3AE014F5F0D
:100ED0005F4F3A01F6019381F40193FD859193FFF1
:100EE00081914F01882309F430C3853239F493FD91
:100EF000859193FF81914F01853239F4B60190E0DD
:100F00000E94130E52012501E5CF10E0F12C20E0E4
:100F10002032A0F48B3269F030F4803259F0833201
:100F200069F420612CC08D3239F0803339F42160AE
:100F300026C02260246023C0286021C027FD27C06E
:100F400030ED380F3A3078F426FF06C0FAE01F9FE4
:100F5000300D1124132F13C04AE0F49E300D1124DC
:100F6000F32E20620CC08E3221F426FDEEC22064E6
:100F700006C08C3611F4206802C0883641F4F401B2
:100F800093FD859193FF81914F018111C1CF9BEB1F
:100F9000980F933018F42061805E06C09BE9980F8B
:100FA000933008F071C12F7E26FF16E02F73322E8A
:100FB000853619F42064322E08C0863621F4F22FCB
:100FC000F0683F2E02C01111115037FE07C01C33CC
:100FD00050F4EE24E394E10E27E00BC0183038F013
:100FE00027E017E005C027E04CE3E42E02C0212FE4
:100FF000E12C520144E0A40EB11CF2016081718128
:10100000828193810E2DA3010E940F0D2C01098175
:1010100000FF02C003FF07C031FC08C032FE09C058
:1010200030E2232E07C02DE2222E04C09BE2292E9F
:1010300001C0212C802F8C7019F0211068C2A8C229
:1010400037FE0FC0E40C04FF04C08A81813309F429
:10105000EA941E1474F5F8E0FE1578F588E0E82EA1
:101060002CC036FC2AC0812F90E0841595059CF099
:101070002CEF42162FEF520674F0432D4068342EA9
:101080000AC0E2E0F0E0EC0FFD1FE10FF11D8081EE
:10109000803319F411501111F4CF37FE0EC0EE2435
:1010A000E394E10E812F90E0481659062CF41419B0
:1010B00004C0EE24E39401C010E037FE06C014140F
:1010C000150434F4C201019605C085E090E002C029
:1010D00081E090E021100196112331F0212F30E0C2
:1010E0002F5F3F4F820F931F2F2D30E08217930702
:1010F00014F4F81A01C0F12C832D897049F4FF20F3
:1011000039F0B60180E290E00E94130EFA94F7CF16
:10111000222029F0B601822D90E00E94130E33FCAC
:1011200009C0FF2039F0B60180E390E00E94130E61
:10113000FA94F7CF37FE5AC0942D852D57FE02C082
:1011400090E080E0292E382E20E030E0A2014E19F8
:1011500051095D874C87A201421953095F874E8769
:10116000612F70E044275527461B570B598B488B3E
:101170005FEF2516350649F4B6018EE290E02A8B22
:101180003B8B0E94130E3B892A89421453046CF056
:101190004C855D854215530544F4EE85FF85E20FCD
:1011A000F31FE60DF71D818101C080E351E0251A90
:1011B00031082F5F3F4F48895989241635064CF076
:1011C000B60190E02A8B3B8B0E94130E2A893B8943
:1011D000CFCF2414350439F49A81963318F495331B
:1011E00011F404FF81E3B60190E04BC08A818133A2
:1011F00009F00F7EB60190E00E94130E111105C098
:1012000034FC18C085E690E017C0B6018EE290E08D
:101210000E94130E82E0EE24E394E80EF301E80F3F
:10122000F11D8081B60190E00E94130E11508E2DA9
:1012300091F7E6CF85E490E0B6010E94130E57FCCB
:1012400005C04114510439F404FF05C05194419480
:1012500051088DE201C08BE2B60190E00E94130EAE
:1012600080E39AE0491651042CF08F5F5AE0451A4A
:101270005108F7CFB60190E00E94130EB601C201EB
:10128000C0960E94130E57C1833631F0833779F030
:10129000833509F058C021C05201E2E0AE0EB11C06
:1012A000F2018081898301E010E0230114C0520122
:1012B000F2E0AF0EB11CF2014080518026FF03C066
:1012C000612F70E002C06FEF7FEFC2012A8B0E9496
:1012D000080E8C012A892F7715C05201F2E0AF0E5B
:1012E000B11CF2014080518026FF03C0612F70E0E5
:1012F00002C06FEF7FEFC2012A8B0E94EF0D8C01BD
:101300002A892068322E23FD1AC08F2D90E00817FD
:101310001907A8F4B60180E290E00E94130EFA9437
:10132000F4CFF20137FC859137FE81912F01B60190
:1013300090E00E94130EF110FA940150110901156A
:10134000110579F7F8C0843611F0893659F5520144
:1013500027FF09C0F4E0AF0EB11CF201608171817A
:10136000828193810AC0F2E0AF0EB11CF20160816C
:101370007181882777FD8095982F2F76322E97FFE1
:1013800009C090958095709561957F4F8F4F9F4FC5
:101390002068322E2AE030E0A3010E94710EE82E70
:1013A000E6183FC0022F853721F40F7E2AE030E097
:1013B0001DC0097F8F3691F018F4883559F0C5C0EB
:1013C000803719F0883711F0C0C0006104FF09C0F0
:1013D000046007C024FF08C0066006C028E030E0B3
:1013E00005C020E130E002C020E132E0520107FFF9
:1013F00009C0F4E0AF0EB11CF201608171818281FD
:10140000938108C0F2E0AF0EB11CF20160817181DE
:1014100080E090E0A3010E94710EE82EE6180F779D
:10142000302E36FE0BC0332D3E7FE11650F434FED5
:101430000AC032FC08C0332D3E7E05C00E2D332D70
:1014400003C00E2D01C0012F34FF0CC0FE01EE0DB4
:10145000F11D8081803311F4397E08C032FF05C050
:101460000E5F04C0832F867809F00F5F33FD13C031
:1014700030FF06C01E2D0F1518F41F0D101B0F2D69
:101480000F1568F4B60180E290E03B8B0E94130ECA
:101490000F5F3B89F5CF0F1510F4F01A01C0F12C46
:1014A00034FF12C0B60180E390E03B8B0E94130E24
:1014B0003B8932FF17C031FD03C088E790E002C0CE
:1014C00088E590E0B6010CC0832F867859F031FF93
:1014D00002C08BE201C080E237FD8DE2B60190E0F0
:1014E0000E94130EE11638F4B60180E390E00E94EA
:1014F000130E1150F7CFEA94F301EE0DF11D808128
:10150000B60190E00E94130EE110F5CF14C0F4E094
:10151000FF1558F584E0F81A33FE1EC0211026C0CE
:1015200003FF2AC005E312E0F32DF0713F2EF8010E
:101530008491811124C0FF2009F4E5CCB60180E23A
:1015400090E00E94130EFA94F6CFF60186819781FF
:1015500026C08FEF9FEF23C0B60180E290E00E948B
:10156000130EFA94F110F8CFD9CFF12CB601822DD9
:1015700090E00E94130ED4CF09E312E0D5CF3110D2
:101580008052B60190E00E94130E0F5F1F4FCFCF25
:1015900023E02F1510F483E0BECFF12CC1CF63966A
:1015A000E2E10C94F40C5058BB27AA270ED0E0C0FF
:1015B000D1D030F0D6D020F031F49F3F11F41EF49A
:1015C000C6C00EF4E095E7FBBCC0E92FE2D080F383
:1015D000BA17620773078407950718F071F49EF530
:1015E000FAC00EF4E0950B2EBA2FA02D0B01B90115
:1015F00090010C01CA01A0011124FF27591B99F089
:10160000593F50F4503E68F11A16F040A22F232F94
:10161000342F4427585FF3CF469537952795A795E4
:10162000F0405395C9F77EF41F16BA0B620B730B8B
:10163000840BBAF09150A1F0FF0FBB1F661F771FFC
:10164000881FC2F70EC0BA0F621F731F841F48F4B1
:10165000879577956795B795F7959E3F08F0B3CF37
:101660009395880F08F09927EE0F97958795089521
:1016700098D088F09F5790F0B92F9927B751A0F0D4
:10168000D1F0660F771F881F991F1AF0BA95C9F716
:1016900012C0B13081F09FD0B1E008959CC0672F97
:1016A000782F8827B85F39F0B93FCCF386957795C6
:1016B0006795B395D9F73EF49095809570956195AF
:1016C0007F4F8F4F9F4F0895E89409C097FB3EF4DA
:1016D00090958095709561957F4F8F4F9F4F99237F
:1016E000A9F0F92F96E9BB279395F69587957795FD
:1016F0006795B795F111F8CFFAF4BB0F11F460FFBD
:101700001BC06F5F7F4F8F4F9F4F16C0882311F014
:1017100096E911C0772321F09EE8872F762F05C028
:10172000662371F096E8862F70E060E02AF09A95C3
:10173000660F771F881FDAF7880F9695879597F9B8
:10174000089597F99F6780E870E060E008959FEF43
:1017500080EC089500240A94161617061806090648
:10176000089500240A941216130614060506089517
:10177000092E0394000C11F4882352F0BB0F40F49F
:10178000BF2B11F460FF04C06F5F7F4F8F4F9F4FDF
:10179000089557FD9058440F551F59F05F3F71F061
:1017A0004795880F97FB991F61F09F3F79F08795C8
:1017B0000895121613061406551FF2CF4695F1DF51
:1017C00008C0161617061806991FF1CF86957105E1
:1017D000610508940895E894BB2766277727CB0115
:1017E00097F908950BD0C4CFB5DF28F0BADF18F011
:1017F000952309F0A6CFABCF1124EECFCADFA0F31B
:10180000959FD1F3950F50E0551F629FF001729F95
:10181000BB27F00DB11D639FAA27F00DB11DAA1FB4
:10182000649F6627B00DA11D661F829F2227B00D01
:10183000A11D621F739FB00DA11D621F839FA00D8C
:10184000611D221F749F3327A00D611D231F849FDC
:10185000600D211D822F762F6A2F11249F57504033
:101860008AF0E1F088234AF0EE0FFF1FBB1F661FCE
:10187000771F881F91505040A9F79E3F510570F087
:1018800060CFAACF5F3FECF3983EDCF38695779567
:101890006795B795F795E7959F5FC1F7FE2B880F82
:1018A000911D9695879597F908959F9305D00F9070
:1018B00007FCEE5F28C04BCF74DFE8F3E894E0E06C
:1018C000BB279F57F0F02AED3FE049EC06C0EE0F32
:1018D000BB0F661F771F881F28F0B23A6207730795
:1018E000840728F0B25A620B730B840BE3959A9528
:1018F00072F7803830F49A95BB0F661F771F881FE8
:10190000D2F7904813C0EF93E0FF06C0A2EA2AED99
:101910003FE049EC5FEB59DE2BDF0F90039401FCB5
:101920009058E8E6F0E00EC09F3F31F0915020F46F
:10193000879577956795B795880F911D96958795AB
:1019400097F908959F938F937F936F93FF93EF93EE
:101950009B01AC0147DFEF91FF9105D02F913F91A3
:101960004F915F913FCFDF93CF931F930F93FF92E0
:10197000EF92DF927B018C01689405C0DA2EEF01B3
:101980003DDFFE01E894A591259135914591559152
:10199000AEF3EF011ADEFE019701A801DA9479F7A0
:1019A000DF90EF90FF900F911F91CF91DF910895FD
:1019B0002F923F924F925F926F927F928F929F925F
:1019C000AF92BF92CF92DF92EF92FF920F931F934D
:1019D000CF93DF93CDB7DEB7CA1BDB0B0FB6F894FE
:1019E000DEBF0FBECDBF09942A88398848885F843E
:1019F0006E847D848C849B84AA84B984C884DF80AF
:101A0000EE80FD800C811B81AA81B981CE0FD11D92
:101A10000FB6F894DEBF0FBECDBFED01089528309C
:101A200008F027E03327DA01990F311D87FD916017
:101A300000966105710539F432602E5F3D9330E305
:101A40002A95E1F708959F3F30F0803871056105D0
:101A500009F03C5F3C5F3D93913008F08068911D38
:101A6000DF93CF931F930F93FF92EF92192F987FDD
:101A70009695E92F96959695E90FFF27E956FD4F24
:101A800099273327EE24FF24A701E7010590089446
:101A9000079428F4360FE71EF81E491F511D660FE4
:101AA000771F881F991F0694A1F70590079428F4C3
:101AB000E70EF81E491F561FC11D770F881F991F7B
:101AC000661F0694A1F70590079428F4F80E491FA5
:101AD000561FC71FD11D880F991F661F771F0694B9
:101AE000A1F70590079420F4490F561FC71FD81F70
:101AF000990F661F771F881F0694A9F78491109588
:101B0000177041F0D695C79557954795F794E79488
:101B10001A95C1F7EDE3F2E06894159015913591AF
:101B20006591959105907FE27395E118F10A430B59
:101B3000560BC90BD009C0F7E10CF11E431F561F0D
:101B4000C91FD01D7EF4703311F48A95E6CFE89456
:101B5000015030F0080F0AF40027021708F4202F74
:101B60002395022F7A3328F079E37D932A95E9F7BC
:101B700010C07D932A9589F60694979567953795B9
:101B800017951794E118F10A430B560BC90BD009AE
:101B900098F023957E9173957A3308F070E37C93E7
:101BA0002013B8F77E9170617D9330F0839571E3D7
:101BB0007D9370E32A95E1F71124EF90FF900F9148
:101BC0001F91CF91DF91992787FD909508959111ED
:101BD00024C1803219F089508550D0F70895FC0156
:101BE0000590615070400110D8F7809590958E0F48
:101BF0009F1F0895FB01DC014150504030F08D9152
:101C00000190801919F40020B9F7881B990B0895E9
:101C1000FC016150704001900110D8F780959095BB
:101C20008E0F9F1F08950F931F93CF93DF93FB0198
:101C3000238121FD03C08FEF9FEF28C022FF16C034
:101C400046815781248135814217530744F4A0818E
:101C5000B1819D012F5F3F4F318320838C9326817B
:101C600037812F5F3F4F3783268310C0EB01092F49
:101C7000182F0084F185E02D0995892BE1F68E81DE
:101C80009F8101969F838E83812F902FDF91CF912B
:101C90001F910F910895A0E0B0E0E1E5FEE00C9403
:101CA000E60CAE01495F5F4FDA016D917D91AD01A8
:101CB00008E112E0F80182819381DC0113962C91F6
:101CC0001397286013962C930E945707D8011296F9
:101CD000ED91FC9113972381277F2383E4E00C94FB
:101CE000020DFA01AA27283051F1203181F1E89440
:101CF0006F936E7F6E5F7F4F8F4F9F4FAF4FB1E0FF
:101D00003ED0B4E03CD0670F781F891F9A1FA11DF9
:101D1000680F791F8A1F911DA11D6A0F711D811DFA
:101D2000911DA11D20D009F468943F912AE0269FBF
:101D300011243019305D3193DEF6CF010895462F1E
:101D40004770405D4193B3E00FD0C9F7F6CF462FFF
:101D50004F70405D4A3318F0495D31FD4052419368
:101D600002D0A9F7EACFB4E0A69597958795779525
:101D70006795BA95C9F700976105710508959B01AC
:101D8000AC010A2E06945795479537952795BA9535
:101D9000C9F7620F731F841F951FA01D0895DC01F2
:101DA000CB01FC01F999FECF06C0F2BDE1BDF89A66
:101DB000319600B40D9241505040B8F70895A8E113
:101DC000B0E042E050E00C94D10EDC01A40FB51F4E
:101DD0004150504048F0CB01840F951F2E910E9436
:101DE000F60E41505040D0F70895262FF999FECFB6
:101DF00092BD81BDF89A019700B4021639F01FBA5E
:101E000020BD0FB6F894FA9AF99A0FBE089501967C
:101E1000272F0E94F60E0C94F50E99278827089517
:041E2000F894FFCF64
:101E24000100000001000000000000F201000000B9
:101E340000000200000000E1010000000053544FC4
:101E4400500050524F4752414D0052554E004C45A0
:101E54004E475448005354455000524742004F46A1
:061E640046004C485A0044
:00000001FF
